:020000040000FA
:0400000013EF00F00A
:06000800058215ED00F079
:100018000580E0CF02F002C0E0FF059010007CEF01
:1000280000F00600F2A21BEF00F01DEF00F02EEF2B
:1000380000F08CB022EF00F025EF00F0010E26EF63
:1000480000F0000EFF0A016E8C500118FE0B01181B
:100058008C6EF292F0A033EF00F035EF00F047EF2E
:1000680000F08CB23AEF00F03DEF00F0010E3EEFE9
:1000780000F0000EFF0A016E01468C500118FD0BBE
:1000880001188C6EF09005921100000E956E6FECC1
:1000980000F08CB452EF00F055EF00F0010E56EF6F
:1000A80000F0000EFF0A036E034603468C50031847
:1000B800FB0B03188C6E0D0E046EAF0E036EB60E9E
:1000C800E82EFED7032EFCD7042EFAD700D04DEF2A
:1000D80000F013EF00F093809382F288F292F0869A
:1000E800F090F19CF19AF08CD08EF28CF28E120086
:0A00F80005900592000149EF00F0A9
:020000040020DA
:08000000FFFFFFFFFFFFFFFF00
:020000040030CA
:0E000000000C181EFF8180FF0FC00FE00F40A4
:00000001FF
